:020000040800F2
:10000000B007002081020008372A0008D523000825
:10001000352A00082D060008CF2F00080000000038
:100020000000000000000000000000004F2D00084C
:100030002F06000800000000392A0008512D000892
:100040009B0200089B0200089B0200089B0200081C
:100050009B0200089B0200089B0200089B0200080C
:100060009B0200089B0200089B0200089B020008FC
:100070009B0200089B0200089B0200089B020008EC
:100080009B020008000000009B0200089B02000881
:100090009B0200089B0200089B0200089B020008CC
:1000A0009B0200089B0200089B0200089B020008BC
:1000B000CD2D0008D92D00089B0200089B020008E6
:1000C0009B0200089B0200089B0200089B0200089C
:1000D0009B0200089B0200089B0200089B0200088C
:1000E0009B0200089B0200089B0200089B0200087C
:1000F0009B0200089B0200089B0200080000000011
:10010000000000009B020008000000009B020008A5
:100110009B020008000000009B0200089B020008F0
:100120009B0200089B0200089B0200089B0200083B
:100130009B02000800000000000000009B02000875
:100140009B0200089B020008000000000000000065
:10015000000000000000000000000000000000009F
:100160000000000000000000000000009B020008EA
:100170009B020008000000000000000000000000DA
:10018000000000009B0200080000000000000000CA
:10019000000000000000000000000000000000005F
:1001A00000000000000000009B0200089B02000805
:1001B0009B0200089B0200089B0200080000000050
:1001C000000000009B02000800000000000000008A
:1001D0009B0200089B02000800F002F800F041F8C2
:1001E0000AA090E8000C82448344AAF10107DA4592
:1001F00001D100F036F8AFF2090EBAE80F0013F0A3
:10020000010F18BFFB1A43F001031847C44C00004C
:10021000E44C0000103A24BF78C878C1FAD85207DD
:1002200024BF30C830C144BF04680C607047000070
:100230000023002400250026103A28BF78C1FBD8EF
:10024000520728BF30C148BF0B607047642900F0D7
:100250007F80002070471FB503F044FD1FBD10B51F
:1002600010BD00F052F91146FFF7F5FF03F0A2F8B8
:1002700000F070F903B4FFF7F2FF03BC00F078F967
:100280000948804709480047FEE7FEE7FEE7FEE72A
:10029000FEE7FEE7FEE7FEE7FEE7FEE70448054966
:1002A000054A064B70470000BD2D0008D901000823
:1002B000B0010020B0070020B0030020B0030020F0
:1002C0000FB41CB5074B06AA7B44694600900598FD
:1002D00000F003F90020694600F012F91CBC5DF83B
:1002E00014FB0000350200002DE9F0410E460446E3
:1002F000002020622046E168884730B3252805D0D9
:10030000D4E901219047206A401CF2E7E1682046C9
:1003100000278847050018D0A5F14100192802D808
:1003200020354FF400673246294620462760FFF704
:100330008DFF40B1012804D0F61D26F007060836CF
:10034000D8E7361DD6E72846DAE7206ABDE8F0810F
:100350002DE9F0410646002410687529314616A59E
:1003600010D0AFF30080002802DA404213A507E066
:1003700031688A0701D512A502E0490704D511A505
:10038000012401E0AFF3008000210A2206F12407D6
:1003900009E0B0FBF2FCB0FBF2F302FB1C003030D2
:1003A00078541846491C0028F3D123462A46304683
:1003B000BDE8F04100F032B8000000002D00000060
:1003C0002B000000200000004FF0000200B5134693
:1003D00094469646203922BFA0E80C50A0E80C5065
:1003E000B1F12001BFF4F7AF090728BFA0E80C5016
:1003F00048BF0CC05DF804EB890028BF40F8042B0F
:1004000008BF704748BF20F8022B11F0804F18BF7B
:1004100000F8012B70477047704770472DE9F0478F
:100420000D4699469246044600F124080168880664
:1004300004D5E06921F01001216000E00120A8420C
:1004400001DD471B00E00027A1697A1902EB0900D2
:10045000081AA0612078C00602D42046AFF30080BD
:10046000002608E0D4E901211AF806009047206A26
:10047000401C761C20624E45F4DB2078C0060AD56D
:100480002046AFF3008006E0D4E9012130209047F8
:10049000206A401C2062381EA7F10107F4DC07E047
:1004A000D4E9012118F805009047206A401C206219
:1004B000281EA5F10105F3DC2046AFF3008020786B
:1004C000000602D50220BDE8F0870120FBE700000E
:1004D00001694A1C02610878704700B58FB0CDE908
:1004E00001310021059105497944CDE903101146F8
:1004F0006846FFF7F9FE0FB000BD0000E5FFFFFF03
:100500000A6802F8010B0A607047754600F02CF883
:10051000AE4605006946534620F00700854618B0F0
:1005200020B5FFF7BBFEBDE820404FF000064FF0BE
:1005300000074FF000084FF0000B21F00701AC4618
:10054000ACE8C009ACE8C009ACE8C009ACE8C00937
:100550008D46704710B50446AFF300802046BDE8D5
:100560001040FFF787BE0000004870475001002090
:1005700001491820ABBEFEE72600020070470000CC
:10058000F8B50446002000902068816811F0010F42
:1005900041D18168214A11422ED18168D543294039
:1005A000491C81601E48806800F0E07000020DD593
:1005B0001C481D490068B0FBF1F0401C00EB4000F6
:1005C000800000E0401E00900028FBD100F046FDB6
:1005D00006461BE0816811F0010F03D181682940B4
:1005E000491C816000F03AFD801B02280ED920686A
:1005F0000068C043C00709D0E06D40F01000E0651E
:10060000206E40F0010020660120F8BD20680168DE
:10061000C943C907DED10020F8BD00003F000080BB
:100620000003005048000020400D0300FEE7704723
:10063000002240F6B83306E00021491C89B29942F5
:10064000FBD3521C92B28242F6D3704772B6FEE7D9
:100650002DE9F84F00270446009790F85800DFF87E
:10066000E0930D46B846012811D0012684F8586061
:10067000206802F0AFF860B1E06D40F02000E06566
:100680005FF0010784F858803846BDE8F88F0220F3
:10069000FBE7D5E900210C23206803EA91131844F5
:1006A000036B01F01F014FF01F0C0CFA01FCC2F3A9
:1006B000846223EA0C038A4013430363206802F038
:1006C00089F88246206802F081F85AEA00003CD19D
:1006D000AA6829682068B2F1004F37D002F07EF88E
:1006E0002068416921F00041416120686969C26860
:1006F000C2F3C102520091402A69042A31D000EBB2
:1007000082002B68026EDFF83CC303F0F84302EA74
:100710000C020B431A4342F00041016620682A692B
:10072000A96900EB8200026E22F080720A43026621
:10073000297F22682869012910D0002102EB80005E
:10074000026E22F000720A4302667DE0002202F08F
:1007500045F82068416941F00041C5E74FF000715C
:10076000ECE7002102F02CF8400320684FF0000174
:1007700072D002F025F890FAA0F0B0FA80F1286863
:1007800042036ED090FAA0F0B0FA80F0814204D11A
:1007900000221146206802F030F80121206802F0A2
:1007A0000FF8400320684FF001015DD002F008F817
:1007B00090FAA0F0B0FA80F12868420359D090FA7C
:1007C000A0F0B0FA80F0814204D10022012120681B
:1007D00002F013F80221206801F0F2FF40032068C4
:1007E0004FF0020148D001F0EBFF90FAA0F0B0FA10
:1007F00080F12868420344D090FAA0F0B0FA80F06B
:10080000814204D100220221206801F0F6FF032179
:10081000206801F0D5FF400320684FF0030133D07A
:1008200001F0CEFF90FAA0F0B0FA80F12868420300
:100830002FD090FAA0F0B0FA80F0814204D10022CB
:100840000321206801F0D9FF2068816811F0010FB1
:1008500022D0ACE000E004E001F0B2FFC0F384611C
:100860008DE7C0F3846091E701F0AAFFC0F38461D3
:10087000A2E7C0F38460A6E701F0A2FFC0F38461A1
:10088000B7E7C0F38460BBE701F09AFFC0F384616F
:10089000CCE7C0F38460D0E72A7B296850F8B03FEA
:1008A000C1F3120C23EA0C0302F0180C664A22FA78
:1008B0000CF20A4013430360E968494577D1286880
:1008C00041031CD090FAA0F1B1FA81F1491C01F06A
:1008D0001F0109294FEA403132D8002912D000BF48
:1008E00090FAA0F1B1FA81F101F1010101F01F01CB
:1008F00006FA01F609D100BFC0F3846109E0C0F334
:100900008461E3E7C0F38461EEE790FAA0F1B1FA05
:1009100081F101F1010101F01F0146EA816102D17B
:10092000C0F3846003E090FAA0F0B0FA80F000F128
:10093000010000F01F0000EB400041EA005132E0EE
:1009400000290ED090FAA0F1B1FA81F101F1010174
:1009500001F01F0106FA01F606D100BFC0F3846161
:1009600006E0C0F38461F1E790FAA0F1B1FA81F1F9
:1009700001F1010101F01F0146EA816102D1C0F3DA
:10098000846003E090FAA0F0B0FA80F000F101007A
:1009900000F01F002D4A00EB400002EB005041EA3E
:1009A000000141F00071AA68206801F017FF284893
:1009B0002A6802423FF466AE26488168264B01F061
:1009C000E0719A4202D0254B9A421CD10B021AD4F4
:1009D0002268B2F1A04F7FF455AE826841F4000165
:1009E00022F0E0720A4382601D481E490068B0FB95
:1009F000F1F0401C00EB4000800000E0401E009041
:100A00000028FBD13EE6184D184BAA4207D1CD0174
:100A100005D422689A42F5D041F0807109E0144D66
:100A2000AA42EFD14A02EDD422689A42EAD041F4B8
:100A30008001826822F0E0720A43826022E60000B0
:100A400000007F4000F0FF03FFFF0700000020FED2
:100A50000000088000030050000021C31000C09077
:100A600048000020400D0300000052C70001005064
:100A7000000084CB0068006C70470000F8B54FF0B0
:100A8000000504002E46009502D0E06D10B107E08D
:100A90000120F8BD204600F0EBF8266684F8586087
:100AA00020688168C1F3407119B18168684A1140BA
:100AB000816020688168C1F3007189B98168654AE5
:100AC000114041F080518160634864490068B0FB87
:100AD000F1F04000801C00E0401E00900028FBD197
:100AE00020688168C1F3007141B9E16D41F01001E6
:100AF000E165216E41F001012166012501F06AFEE8
:100B0000E16DC90600D430B1E06D40F01000E06541
:100B100001252846F8BDE06D20F4807040F0020009
:100B2000E0652068806810F0010F11D14FF0A040FF
:100B300080684B4900F00100896801F00101084319
:100B400006D148486168826822F47C120A438260B8
:100B5000E168E06B627F0843A16841EA42310843E3
:100B600094F8241040EA0140012904D1218D3E4A25
:100B700002EB41410843E16A29B101F47871226B2B
:100B8000014342EA01002268D168384B1940014311
:100B9000D16020680169626B21F0406111430161FD
:100BA000206801F013FE70BB207F94F8381080039A
:100BB00040EA41022168C86844F2020398431043A6
:100BC000C86020690028206801690AD041F480319A
:100BD0000161206850F8C01F22696FF30D011143B5
:100BE00007E021F480310161206850F8C01F6FF3E5
:100BF0000D01016094F8400001280CD020680169C3
:100C000021F001010161606901282068016B21F078
:100C10000F0111D013E0D4E911010843D4E91312F4
:100C20001143084321680A6940F2FC739A43104358
:100C300040F001000861E6E7226A521E1143016399
:100C4000E06D20F0020040F00100E06561E7000087
:100C5000C0FFFF5FC0FFFF7F48000020400D030082
:100C600000010050000300500000FEFF0740F0FFAD
:100C700010B598B00446142111A8FFF7A5FB442134
:100C80006846FFF7A1FB15492068884223D1C401BB
:100C9000400500940F90684600F0DEFA08B1FFF7B7
:100CA000D5FC0F48C16C41F40051C164C16C01F422
:100CB00000511691C16C41F00201C164C06C11A9D0
:100CC00000F0020016900320CDE91140002013909F
:100CD000044800F095F818B010BD00000001005065
:100CE00000100240000400482DE9F0410446384855
:100CF000806800F01F05206801F06CFD18B102212A
:100D00000846BDE8F08194F8580001280CD0012075
:100D100084F858002046FFF733FC01004FF0000331
:100D200004D084F85830EBE70220EAE7E06D40F6A3
:100D30000162904340F48070E065264A20684FF0DD
:100D4000A046904201D1374600E00746874200D0D6
:100D50001DB9E76D27F48017E765E76DFF0404D53B
:100D6000276E27F00607276600E023661C2707602A
:100D700084F858302068904201D1334600E00346A1
:100D8000834215D0A5B1052D12D0092D10D0E36DE9
:100D900043F48013E365904200D13046C06880017F
:100DA000AED5E06D20F4005040F48050E065A7E738
:100DB000C268920105D5E26D22F4005242F48052DD
:100DC000E2658268044B1A40121D826098E70000B9
:100DD0000003005000010050C0FFFF7F70B50446C3
:100DE00000F03CF90546601C02D004484068044409
:100DF00000F034F9401BA042FAD370BD000000207F
:100E00002DE9F04FDFF82092002301260324A9F1F9
:100E1000040B85B00F2709F1040AABF1040EFAE0C8
:100E200006FA03F52A407CD091F804C00CF0030CBC
:100E3000BCF1010F02D0BCF1020F26D1D0F808C0DE
:100E4000CDF800C04FEA430C04FA0CF8CDF810C0FE
:100E5000DDF800C02CEA080CCDF800C0D1F80C80F9
:100E6000DDF810C008FA0CF8DDF800C048EA0C08FC
:100E7000C0F80880D0F804C02CEA050C0D79C5F341
:100E800000159D4045EA0C0545600D79ED43AD0721
:100E90000ED0C5684FEA430804FA08FC25EA0C05A1
:100EA000D1F808C00CFA08FC4CEA050CC0F80CC0DC
:100EB0000D7905F00305022D16D1DD0800EB850C38
:100EC000CDF808C0DCF820805D074FEAD56C07FA42
:100ED0000CF528EA05080D6905FA0CF5DDF808C0DF
:100EE00045EA0805CCF8205005684FEA430CCDF8D8
:100EF00008C004FA0CFC25EA0C0591F804C00CF0BB
:100F00000308DDF808C008FA0CF848EA0508C0F83C
:100F100000804D6815F4403F7CD0444DD5F860C04A
:100F200000E077E04CF0010CC5F860C02D6E23F0B6
:100F3000030C05F0010500953D4D65440295AD6833
:100F40004FEA837C4FEA1C7807FA08FC25EA0C0577
:100F5000B0F1904F06D0DFF8DCC0604505D14FF00E
:100F6000010C20E04FF0000C1DE0DFF8CCC0604524
:100F700002D14FF0020C16E0DFF8C0C0604502D18C
:100F80004FF0030C0FE0DFF8B8C0604502D14FF01E
:100F9000040C08E0DFF8ACC0604502D14FF0050C4E
:100FA00001E04FF0060C0CFA08FC4CEA050C029D1F
:100FB000C5F808C0D9F80050CC46D1F80480954354
:100FC0005FEAC82800D51543CCF80050DAF8005085
:100FD000D446D1F8048095435FEA882800D51543AC
:100FE000CCF80050DBF80050DC46D1F80480954383
:100FF0005FEA883800D51543CCF80050DEF8005081
:10100000F446D1F8048095435FEAC83800D515430B
:10101000CCF800505B1C0A6832FA03F57FF400AF8D
:1010200005B0BDE8F08F0000080401400010024048
:10103000000001400004004800080048000C00487F
:1010400000100048001400480069084000D001204A
:1010500070470AB1816170478162704701488068BA
:101060007047000000000020024881684268114477
:10107000816070470000002010B50024032000F0BC
:1010800073F80F2000F008F808B1012401E000F027
:1010900025F8204610BD000070B50E4E0546002410
:1010A000706898B14FF47A71B1FBF0F00A490968A1
:1010B000B1FBF0F000F03CFD40B9102D06D200224B
:1010C0002946501E00F030F8356000E0012420462B
:1010D00070BD000000000020480000200A4882B0D7
:1010E000016E41F001010166016E01F00101009104
:1010F000816D41F080518165806D00F080500090DD
:1011000002B000F0A1B8000000100240002809DB86
:1011100000F01F02012191404009800000F1E02011
:10112000C0F8001170470000F0B40E4B1B680C466D
:10113000C3F30223C3F10705042D00D90425191DAB
:10114000072901D2002300E0DB1E012606FA05F183
:10115000491E214099409E40761E16403143F0BC06
:1011600001F036BF0CED00E0064900F00702086808
:101170004FF6FF03184040EA0220034A104308607C
:10118000704700000CED00E00000FA052B492C4BE5
:101190000A6832214A432B4940B1B0F5007F086804
:1011A00029D020F4C06040F480602CE00868C0F3CF
:1011B0004120022804D051F8800F20F4807022E0F2
:1011C000D1F8800020F48070C1F88000086820F415
:1011D000C06040F400700860B2FBF3F0401C00E017
:1011E000401E4A69520501D50028F9D148694005D9
:1011F0000AD503207047C0F34120022806D051F8D9
:10120000800F40F48070086000207047D1F88000A3
:1012100040F48070C1F88000086820F4C06040F499
:1012200000700860B2FBF3F0401C00E0401E4A6909
:101230005205DBD50028F9D1D8E70000480000208E
:1012400040420F00007000400248816841F4804134
:1012500081607047007000402DE9F8430446006843
:1012600000269D4D00035ED5A86D0027C00008D460
:10127000A86D40F08050A865A86D012700F080504F
:101280000090DFF85892D9F8001041F48071C9F845
:101290000010FFF7E3FE804606E000BFFFF7DEFE2A
:1012A000A0EB080002282BD8D9F80000C005F5D51E
:1012B000D5F8900010F4407014D0216C814211D008
:1012C000D5F89000D5F8901020F4407041F48031AA
:1012D000C5F89010D5F8901021F48031C5F8901021
:1012E000C5F89000C00711D0FFF7B8FE804641F264
:1012F000883907E0FFF7B2FEA0EB0801494501D9A4
:1013000003260BE0D5F890008007F3D5D5F89000C0
:10131000216C20F440700843C5F890001FB1A86DFF
:1013200020F08050A8652078C00707D0D5F8880045
:10133000616820F003000843C5F888002078800722
:1013400007D5D5F88800A16820F00C000843C5F83F
:1013500088002078400707D5D5F88800E16820F09C
:1013600030000843C5F888002078000707D5D5F875
:101370008800216920F0C0000843C5F88800207863
:10138000800607D5D5F88800616920F440600843DD
:10139000C5F888002078400607D5D5F88800A169EF
:1013A00020F440500843C5F888002078000607D58F
:1013B000D5F88800E16920F440400843C5F888006A
:1013C0002088C00507D5D5F88800216A20F4403070
:1013D0000843C5F888002088800507D5D5F888001F
:1013E000616A20F440200843C5F888002088400541
:1013F0000FD5D5F88800A16A20F440100843C5F83D
:101400008800A06AB0F5801F03D1E86840F480101E
:10141000E860208800050FD5D5F88800E16A20F43F
:1014200040000843C5F88800E06AB0F5800F03D19A
:10143000E86840F48010E8602088C0040FD5D5F833
:101440008800216B20F040700843C5F88800206BAD
:10145000B0F1807F03D1E86840F48010E860208814
:101460004FF0006180040ED5D5F88800626B20F043
:1014700040601043C5F88800606B884203D1E8687B
:1014800040F48010E860208840040ED5D5F888002C
:10149000A26B20F040601043C5F88800A06B884222
:1014A00003D1E86840F48010E860208800040FD57C
:1014B000D5F88800E16B20F040500843C5F888005B
:1014C000E06BB0F1805F03D1E86840F48030E86001
:1014D0003046BDE8F8830000001002400070004074
:1014E0002DE9F0470E4605004FF0000725D0DFF844
:1014F000AC81D8F8000000F00F00B0420CD2D8F850
:10150000001021F00F013143C8F80010D8F8000096
:1015100000F00F00B04210D12968614CC80741F2B9
:10152000883A5AD06868DFF87C91032808D00228EE
:1015300020682DD0400500282CDB0120BDE8F08775
:1015400020688001F9D5E06800F00302E068C0F38C
:101550000310401C032A19D0534A00BFB2FBF0F01D
:10156000E268C2F306225043E268C2F34162521CB1
:101570005200B0FBF2F0484517D9A06810F0F00F08
:101580000CD0880711D5A86840B10EE0474AE5E7BE
:101590008003D0E700F092F8484506D9A06820F013
:1015A000F00040F08000A0608027A068696820F00B
:1015B00003000843A060FFF751FD814606E000BF2D
:1015C000FFF74CFDA0EB090151453AD8A0686968C6
:1015D00000F00C00B0EB810FF2D12868810714D520
:1015E000400703D5A06840F4E060A06028780007B9
:1015F00005D5A06820F4605040F4E060A060A068C9
:10160000A96820F0F000084304E0802F03D1A0680F
:1016100020F0F000A060D8F80010404601F00F0163
:10162000B14216D9016821F00F0131430160FFF783
:1016300015FD074607E000BFFFF710FDC11B514530
:1016400001D903207AE7D8F8000000F00F00B0427B
:10165000F2D12878400705D5A068E96820F4E06059
:101660000843A0602878000706D5A068296920F4FF
:10167000605040EAC100A06000F020F8A1680C4A68
:10168000C1F30311515C01F01F01C8400949086012
:1016900009480068BDE8F047FFF7FEBC00200240A3
:1016A0000010024000B4C4040024F40000366E01AF
:1016B000BE4E00084800002000000020184910B568
:1016C0008868C0F381021748012A0BD08A68164B3C
:1016D000C2F38102022A06D08A68C2F38102032A79
:1016E00003D0002010BD184610BDCA6802F00304E4
:1016F000CA68C2F30312521C032C02D0B0FBF2F0F2
:1017000001E0B3FBF2F0CA68C968C2F30622504395
:10171000C1F34161491C4900B0FBF1F010BD00006C
:10172000001002400024F40000366E012DE9F84359
:1017300004007AD02078F84DC00747D0A868E9683F
:1017400000F00C0001F003010C2802D0082817D08B
:1017500001E0032914D06068B0F5803F17D0B0F5E0
:10176000A02F286817D020F480302860286820F443
:10177000802028606068E0B1FFF770FC064614E046
:101780002868800322D560680028D2D01EE028682F
:1017900040F48030EDE740F480202860F7E700BF98
:1017A000FFF75CFC801B642870D828688003F7D59D
:1017B0000CE0FFF753FC064605E000BFFFF74EFCC8
:1017C000801B6428F0D828688003F7D4207880072D
:1017D0004CD5A868E96800F00C0001F003010C2862
:1017E00002D004280DD001E002290AD0E0680028C8
:1017F00028682BD040F480702860FFF72FFC064645
:1018000019E02868400502D5E068002891D0686892
:10181000217C20F0FE4040EA01606860BF4800681B
:10182000FFF73AFC002800D120E072E1FFF716FC38
:10183000801B0228B8D828684005F7D56868217C45
:1018400020F0FE4040EA016068600FE020F4807004
:101850002860FFF703FC064605E000BFFFF7FEFB2C
:10186000801B0228A0D828684005F7D420780007FC
:1018700029D560690028D5F8940013D040F0010004
:10188000C5F89400FFF7EAFB064606E090E000BFCB
:10189000FFF7E4FB801B022886D8D5F89400800768
:1018A000F6D510E020F00100C5F89400FFF7D6FB54
:1018B000064604E0FFF7D2FB801B022878D8D5F853
:1018C00094008007F6D42078400761D5A86D0026E3
:1018D000C00008D4A86D40F08050A865A86D01260E
:1018E00000F0805000908E480168C90511D401684D
:1018F000804641F480710160FFF7B0FB074604E0C9
:10190000FFF7ACFBC01B022852D8D8F80000C00576
:10191000F6D5A068012815D00528D5F8900016D076
:1019200020F00100C5F89000D5F8900020F00400E8
:10193000C5F89000A06841F28838B8B1FFF78EFB77
:1019400007460EE0D5F8900040F00100F0E740F0C7
:101950000400C5F89000F5E7FFF780FBC11B414587
:1019600026D8D5F890008007F6D50CE0FFF776FB77
:10197000074604E0FFF772FBC11B414518D8D5F8B4
:1019800090008007F6D41EB1A86D20F08050A865A5
:101990002078800629D5A0690028D5F8980013D0B2
:1019A00040F00100C5F89800FFF758FB064606E036
:1019B00075E000BFFFF752FB801B02286FD8D5F8F7
:1019C00098008007F6D510E020F00100C5F89800D7
:1019D000FFF744FB064604E0FFF740FB801B0228AC
:1019E0005DD8D5F898008007F6D4E069F0B3A9680F
:1019F000C1F3810103295DD00228286820F080709E
:101A0000286003D0FFF72AFB04464BE0FFF726FBD4
:101A1000064604E0FFF722FB801B02283FD8286817
:101A20008001F7D4F4E908016FF00F0202EB011115
:101A30000843218A5204490802EB4151A26841EA55
:101A400002210843217D4FF07E42490802EB4161AB
:101A50000843217B40EAC160E968324A11400843EB
:101A6000E860286840F08070286000E05EE0E86888
:101A700040F08070E860FFF7F1FA044605E000BF2F
:101A8000FFF7ECFA001B022809D828688001F7D577
:101A90004CE000BFFFF7E2FA001B022802D9032046
:101AA000BDE8F88328688001F4D4E8681E4908403E
:101AB000E8603BE00128F3D0E868226A00F0030107
:101AC000914226D1616A00F0F00209011039914279
:101AD0001FD1A26A00F4FE41B1EB022F19D194F894
:101AE0002C2000F07841B1EBC26F12D1218E00F4AE
:101AF000C00249084905A1F50011914209D194F8A5
:101B0000341000F0C06049084906A1F1007181421B
:101B10000CD00120C4E700000010024000000020AB
:101B2000007000400C809F01FCFFEEFE0020B7E734
:101B300010B5401EB0F1807F01D3012010BD4FF0E1
:101B4000E02460610F21601701F042FA0020A061DB
:101B500007202061002010BD704770477047704714
:101B600070477047F0B590F83C20012A3AD0012523
:101B700080F83C50022280F83D2003685A689C6837
:101B8000194E1A4FB34201D0BB4204D122F4700C5B
:101B90004A6842EA0C02DFF858C002EA0C02D1F8A7
:101BA00000C04CEA020CC3F804C00268B2420DD077
:101BB000B2F1804F0AD00F4B9A4207D00E4B9A4297
:101BC00004D0BA4202D00D4B9A4204D1896824F065
:101BD00080031943916080F83D50002180F83C104B
:101BE0000846F0BD0220F0BD002C01400034014049
:101BF0008FFFFFFD0004004000080040004001404E
:101C0000704710B5040003D094F83D0010B107E010
:101C1000012010BD002084F83C00204600F022F88E
:101C2000022084F83D00211D206801F0DBF801202E
:101C300084F8480084F83E0084F83F0084F84000AF
:101C400084F8410084F8420084F8430084F844009A
:101C500084F8450084F8460084F8470084F83D0085
:101C6000002010BD08B50068B0F1804F12D10A48BD
:101C7000816D41F001018165806D002200F001005D
:101C8000009011461C20FFF74FFABDE808401C20C9
:101C9000FFF73CBA08BD00000010024090F83D106C
:101CA000012901D001207047022180F83D10016810
:101CB000CA6842F00102CA600068104988420ED02A
:101CC000B0F1804F0BD00E49884208D00D498842B0
:101CD00005D00D49884202D00C49884207D181685D
:101CE0000B4A1140062906D0B1F5803F03D00168A8
:101CF00041F001010160002070470000002C01400C
:101D00000004004000080040003401400040014051
:101D1000070001000168CA6822F00102CA60016878
:101D20000A6A41F211131A4207D10A6A9B001A4249
:101D300003D10A6822F001020A60012180F83D10F7
:101D40000020704770B5044690F83C00002501283B
:101D500014D0012684F83C60022084F83D002268FB
:101D60009068364B184020F47F40906008687028D7
:101D70002ED010DC10F00F0F03D021E04FF0020046
:101D800070BD4FEA2012072A1AD2DFE802F0525241
:101D900052524A3840002A4BC21A984249D009DCB4
:101DA000B0F5805F0DD0B0F5005F1CD0B0F1101F12
:101DB00006D13EE0102A3CD0202A3AD0502A38D012
:101DC000012584F83D60002084F83C00284670BD61
:101DD000CB68D1E90121206801F06FF820688168A3
:101DE00041F0770109E0CB68D1E90121206801F0D9
:101DF00064F82068816841F480418160E1E7CA6845
:101E00004968206801F06EF85021206806E0CA6831
:101E10004968206801F0AEF86021206801F058F8A8
:101E2000CFE7CA684968206801F05CF84021206863
:101E3000F4E7226801461046F0E7000088FFCEFF75
:101E40002000100070B504460068104988421BD17C
:101E5000207F012818D10021204600F0A5FA01F0CA
:101E600046FD0B4D41EC100B002085ED0A0B21685F
:101E7000486253EC102B9FED070B51EC100B01F057
:101E8000B1FB01F007FD288370BD00000004004095
:101E9000100000200000000080842E412DE9F04158
:101EA000054690F83C0000260C46012810D0012081
:101EB00085F83C0072B1042A1CD0082A2CD00C2AC8
:101EC00050D00126002085F83C003046BDE8F08166
:101ED0000220FBE7D4E90012E368286801F014F857
:101EE0002868816921F00C01816128688169A268F4
:101EF00011430FE0D4E90012E368286801F04CF8C0
:101F00002868816921F44061816128688169A2683B
:101F100041EA02218161D5E72868D4E9002C277BBA
:101F2000036A016A21F480710162C16923F42063AC
:101F300021F0030141EA0C0121F0F00C39074FF4C4
:101F400020674CEA116107EA02221A43C16102626A
:101F50002868C16921F00C01C1612868C169A268C3
:101F600011432BE02868D4E90021E768036AD0F820
:101F700020C02CF4805CC0F820C0D0F81CC023F432
:101F800020432CF4407C4CEA012121F4704C4FF6A4
:101F9000FF7101EA07314FF4204741EA0C0107EADB
:101FA00002321A43C16102622868C16921F44061AA
:101FB000C1612868C169A26841EA0221C16181E763
:101FC00010B5040003D094F83D0010B107E00120E3
:101FD00010BD002084F83C00204600F023F80220C9
:101FE00084F83D00211D206800F0FCFE012084F8EB
:101FF000480084F83E0084F83F0084F8400084F8EC
:10200000410084F8420084F8430084F8440084F8D6
:10201000450084F8460084F8470084F83D0000201D
:1020200010BD000010B586B0044614216846FEF7C6
:10203000CBF915492068884224D11448816D41F0BC
:1020400002018165816D01F002010591C16C41F0D1
:102050000201C164C06C002100F002000590102054
:1020600000900220CDE90101CDE90310694608483E
:10207000FEF7C6FE002211461D20FFF755F81D2071
:10208000FFF744F806B010BD000400400010024005
:102090000004004830B50446002571B1042911D070
:1020A000082914D00C2917D0102918D094F843000F
:1020B00094F84720012817D114E094F83E0094F8D2
:1020C0004420F7E794F83F0094F84520F2E794F8AD
:1020D000400094F84620EDE794F84100E8E794F8D2
:1020E0004200E5E7012A01D0012030BD022079B18C
:1020F000042916D008291DD00C2949D010294AD00E
:1021000084F8430084F847000C2947D001253DE0BE
:1021100084F83E0084F844002068C26842F002025D
:1021200010E084F83F0084F845002068C26842F05F
:10213000040207E084F8400084F846002068C26882
:1021400042F00802C2600122206800F0A9FE164990
:10215000206888420ED0B0F1804F0BD013498842DE
:1021600008D01349884205D01249884202D012494A
:10217000884207D18168114A1140062906D0B1F57D
:10218000803F03D0016841F001010160284630BD65
:1021900084F84100B6E784F84200B3E72068C268DB
:1021A00042F01002CEE70000002C01400004004085
:1021B00000080040003401400040014007000100D9
:1021C0002DE9F04104460068C66805694FF0000734
:1021D000A90713D5B10711D5F91E01610120207798
:1021E000206880698007204602D0FFF72BFE04E0BC
:1021F00000F0B7F8204600F0B5F82777680716D545
:10220000700714D521686FF0040008610220207760
:102210002068806910F4407F204602D0FFF712FE4C
:1022200004E000F09EF8204600F09CF8277728078D
:1022300015D5300713D521686FF008000861042018
:1022400020772068C0698007204602D0FFF7FAFD9A
:1022500004E000F086F8204600F084F82777E806CE
:1022600016D5F00614D521686FF01000086108201B
:1022700020772068C06910F4407F204602D0FFF725
:10228000E1FD04E000F06DF8204600F06BF82777E0
:10229000E80708D0F00706D021686FF00100086158
:1022A000204600F061F8280601D4A80408D53006BD
:1022B00006D521686FF4025008612046FFF74DFCF7
:1022C000E80508D5300606D521686FF480700861EE
:1022D0002046FFF741FC680608D5700606D5216840
:1022E0006FF040000861204600F073F8A80608D59A
:1022F000B00606D521686FF0200008612046FFF780
:102300002DFCE80208D5F00206D521686FF4801094
:1023100008612046FFF724FCA80208D5B00206D5C4
:1023200021686FF4001008612046FFF718FC68026E
:1023300008D5700206D521686FF480000861204638
:10234000FFF70FFC28020AD5300208D521686FF488
:10235000000008612046BDE8F041FFF751BCBDE830
:10236000F08170477047000010B50068B0F1804FF1
:102370000FD10B4C206A401C2062B0F5FA7F09D3C4
:102380000021062000F0F4FF0648FFF7C3FC002000
:10239000206210BD0121BDE81040062000F0E8BF1A
:1023A00010000020B80000200246002041B104299E
:1023B00009D008290AD00C2901D11068006C704797
:1023C0001068406B70471068806B70471068C06B76
:1023D00070477047FEE7000000B585B014216846DD
:1023E000FDF7F2FF4FF6FF70009000200321CDE9CA
:1023F0000201019069460248FEF702FD05B000BDEA
:102400000008004800B585B014216846FDF7DCFFE0
:102410004FF6FF70009001200190032003900020F0
:10242000029069460248FEF7EBFC05B000BD0000D3
:10243000000800482DE9F0410A4E8046306800242B
:1024400085B22146204600F017F900F055F94FF407
:102450009637404600F024F9641CBC42F9D335603D
:10246000BDE8F0811408004830B587B014216846F3
:10247000FDF7AAFF1E48C16C41F00401C164C16CA4
:1024800001F004010591C16C41F00101C164C16C0E
:1024900001F001010591C16C41F00201C164C06C01
:1024A000012500F0020005904FF44870CDE90005C9
:1024B00000240394694602940E48FEF7A1FC28020A
:1024C00003940090CDE901544FF0904469462046B2
:1024D000FEF796FCFFF796FFA06940F48070A061BC
:1024E00004481830016841F40871016007B030BD3C
:1024F0000010024000040048203AD2B2034B02EB25
:10250000420203EB021200F023B80000EE3C000888
:102510002DE9F043DFF8348081460E46D8F80000FC
:10252000002587B240F23F1407E021464846FFF7F6
:10253000E3FF103C6D1CA4B2761C32780AB1142D56
:10254000F3D3C8F80070BDE8F08300001408004819
:102550002DE9F04791468A460026044600F08CF8A3
:10256000DFF84080012700BF00F0C6F85FF00005EB
:1025700039F8160007FA05F10842404601D14088B3
:1025800000E0008800F08CF86D1C102DF0D3641C66
:10259000E4B25146204600F06FF8761C182EE3D3C3
:1025A000BDE8F0874000002070B50D4E306885B260
:1025B000FFF75AFF002000F017F80A4CA080A0880F
:1025C000A0F50241303907D000F0C0FA002000F039
:1025D0000BF8A080356070BD00F02FFAF6E7000020
:1025E000140800484000002070B51D490A6842F4F4
:1025F00000720A600A6842F480720A60184C103C4B
:10260000226842F020022260164A1060086840F0FA
:102610002000086000BF00BF00BF206840F020001D
:102620002060206840F480702060FFF7D5FE4FF0F6
:102630009041886A40F48070886200BF00BF00BF8C
:102640000848001F006885B2886940F4807088617E
:10265000FFF7D8FE206840F400702060284670BD67
:10266000280400481408004801B5BDF800000149DD
:10267000488008BD4000002010B50C4601462020CF
:1026800000F068F82146BDE81040212000F062B853
:1026900001B5BDF800000149088008BD40000020D8
:1026A000134A116841F400711160114910390B6827
:1026B00043F480730B600B6843F020030B600D4BF9
:1026C0001860106840F02000106000BF00BF00BF1D
:1026D000086840F020000860086840F480700860D6
:1026E00000BF00BF00BF086840F40070086070477A
:1026F00028040048140800481449086840F4007091
:102700000860086840F4807008601048103802685B
:1027100042F0200202600E4B22221A600A6842F048
:1027200020020A6000BF00BF00BF016841F0200125
:102730000160016841F48071016000BF00BF00BF0B
:10274000016841F4007101607047000028040048EE
:1027500014080048184B10B51A6842F400721A6049
:102760001A6842F480721A60134A103A146844F0EE
:1027700020041460114C2060186840F0200018609C
:1027800000BF00BF00BF106840F02000106010685C
:1027900040F4807010602160186840F020001860DC
:1027A00000BF00BF00BF106840F02000106010683C
:1027B00040F48070106010BD2804004814080048E0
:1027C00000EB8100006E00F0F84070478068C0F3B5
:1027D000C00070478068C0F380007047042303EA9C
:1027E000D15310B518444369C1F3045107248C40F8
:1027F000A3438A401343436110BD00EB8100016E87
:1028000021F00041114301667047000030B589B0E6
:1028100020216846FDF7D8FD1948184900240160B9
:102820004902C0E90114C46004250461C0E90545FA
:10283000047744770121016280F82440C462046374
:1028400080F83840C46380F84040FEF717F908B1BB
:10285000FDF7FCFE0B4800900620CDE901047F2027
:102860000594CDE9030569460548FDF7F1FE00280A
:1028700001D0FDF7EBFE09B030BD000000010050B3
:102880004C0000200080F03EF0B587B0142168466F
:10289000FDF79AFD2D48C16C41F00401C164C16C83
:1028A00001F004010591C16C41F02001C164C16CCB
:1028B00001F020010591C16C41F00101C164C16CBE
:1028C00001F001010591C16C41F00201C164C16CCC
:1028D00001F002010591C16C41F00801C164C06CB6
:1028E0001B4E00F008004FF47F4405900122214662
:1028F0003046FEF7AEFB174F002204213846FEF7A4
:10290000A8FB0125CDE90045002402946946304624
:102910000394FEF775FACDE9005469464FF09040F4
:102920000295FEF76DFA07208DE8310069460A48E6
:10293000FEF766FA04200090CDE901546946384656
:102940000394FEF75DFA07B0F0BD000000100240EE
:1029500000080048000C00480004004810B588B08A
:10296000002417480094019402940394049405945D
:102970004FF080410694016041F63F71C0E90114B7
:1029800042F20F71C0E903148461FFF73AF908B10C
:10299000FDF75CFE4FF48050009069460848FFF751
:1029A000D1F908B1FDF752FE049404A90448069435
:1029B000FFF7D8F8002801D0FDF748FE08B010BD99
:1029C000B800002010B588B000241948059406947A
:1029D00004940094019402941449039401604F21DB
:1029E000C0E901144FF6FF71C0E903148461FFF7D9
:1029F000E7FA08B1FDF72AFE049404A90C480694EE
:102A0000FFF7B0F808B1FDF721FE0120CDE9004045
:102A100002940022694606480394FFF73FFA002813
:102A200001D0FDF713FE08B010BD00000004004007
:102A300004010020FEE7FEE7704730B501210020C9
:102A4000FFF788FE4FF47A70FDF7F2FD00210120B8
:102A5000FFF780FE41F290711020FFF77BFE4FF4EC
:102A60001C516020FFF776FE01216120FFF772FE06
:102A700002214620FFF76EFE48F210011320FFF7F7
:102A800069FE48F2FE011220FFF764FE4FF4A061D8
:102A90000220FFF75FFE41F230010320FFF75AFEEC
:102AA00040F2033421463020FFF754FE2146312006
:102AB000FFF750FE21463220FFF74CFEE51E294667
:102AC0003320FFF747FE03213420FFF743FE214662
:102AD0003520FFF73FFE14213620FFF73BFE21464D
:102AE0003720FFF737FE21463820FFF733FE214617
:102AF0003920FFF72FFE29463A20FFF72BFE03214E
:102B00003B20FFF727FE21463C20FFF723FE4FF432
:102B1000A0513D20FFF71EFE4FF400719220FFF7F9
:102B200019FE21469320FFF715FE40F60D01902077
:102B3000FFF710FE41F218010320FFF70BFEBDE87E
:102B4000304040F273110720FFF704BE10B543F286
:102B50000801E320FFF7FEFD1221E720FFF7FAFD51
:102B600041F23121EF20FFF7F5FD00210120FFF7B1
:102B7000F1FD4FF4E0610220FFF7ECFD41F230017E
:102B80000320FFF7E7FD00210420FFF7E3FD40F2FB
:102B900007210820FFF7DEFD00210920FFF7DAFDFD
:102BA00000210A20FFF7D6FD00210C20FFF7D2FDFF
:102BB00000210D20FFF7CEFD00210F20FFF7CAFDF9
:102BC00000211020FFF7C6FD07211120FFF7C2FDED
:102BD00000211220FFF7BEFD00211320FFF7BAFDF0
:102BE000C820FEF7FBF841F290611020FFF7B2FD1C
:102BF00040F227211120FFF7ADFD3220FEF7EEF85D
:102C00001D211220FFF7A6FD3220FEF7E7F84FF452
:102C100000611320FFF79EFD14212920FFF79AFD84
:102C20000B212B20FFF796FD3220FEF7D7F800216D
:102C30002020FFF78FFD00212120FFF78BFD0721CA
:102C40003020FFF787FD40F207713120FFF782FD4A
:102C500006213220FFF77EFD40F204713520FFF798
:102C600079FD41F604713620FFF774FD0421372009
:102C7000FFF770FD00213820FFF76CFD40F2067170
:102C80003920FFF767FD40F201713C20FFF762FD3C
:102C90000F213D20FFF75EFD00215020FFF75AFD78
:102CA000EF215120FFF756FD00215220FFF752FD82
:102CB00040F23F115320FFF74DFD4FF41C516020AF
:102CC000FFF748FD01216120FFF744FD00216A2044
:102CD000FFF740FD00218020FFF73CFD002181200F
:102CE000FFF738FD00218220FFF734FD002183200B
:102CF000FFF730FD00218420FFF72CFD0021852007
:102D0000FFF728FD10219020FFF724FD00219220DD
:102D1000FFF720FD03219320FFF71CFD4FF488717E
:102D20009520FFF717FD00219720FFF713FD0021E5
:102D30009820FFF70FFD41F218010320FFF70AFD6D
:102D4000BDE8104040F273110720FFF703BD704744
:102D5000FEF78AB910B594B038216846FDF734FB08
:102D600014210EA8FDF730FB4FF40070FEF70EFAA9
:102D7000012000900004019002200324CDE9070403
:102D80001421CDE90A100C900D9009946846FEF7C5
:102D9000CDFC08B172B6FEE70F20CDE90E0400208D
:102DA00010901190129002210EA8FEF799FB0028B6
:102DB00001D072B6FEE714B010BD000002480168F1
:102DC00041F470010160704788ED00E00148FFF7B1
:102DD000F7B90000B80000200148FFF7F1B9000082
:102DE000040100202DE9F0430268264B264D274EB2
:102DF000274C4FF08049984207D0484505D0A8425B
:102E000003D0B04201D0A04203D122F070074A683B
:102E10003A43204FDFF880C0DFF8808098420DD021
:102E200048450BD0A84209D0B04207D0A04205D0F7
:102E3000B84203D0604501D0404503D122F440752B
:102E4000CA682A434D6922F080022A4302608A68D8
:102E5000C2620A688262984207D0A04205D0B84296
:102E600003D0604501D0404501D1096901630121CA
:102E700041610169C90703D0016921F001010161C4
:102E8000BDE8F083002C0140000400400008004031
:102E9000003401400040014000440140004801402E
:102EA00010B501F01F030121046A99408C430462AC
:102EB000016A9A401143016210BD10B5846842EA6C
:102EC000032224F47F440A432243826010BD0000A1
:102ED0008268034B1A400A4342F007018160704741
:102EE0008FFFCFFF10B5036A046A24F00104046267
:102EF000846924F0F00444EA021423F00A020A432D
:102F00008461026210BD000070B5056A046A24F095
:102F1000010404628469124EB0420ED0B0F1804FB9
:102F20000BD0104EB04208D00F4EB04205D00F4E1D
:102F3000B04202D00E4EB04203D124F00304144339
:102F400001E044F001041A0724F0F00444EA12629C
:102F500025F00A0301F00A0119438261016270BD84
:102F6000002C0140000400400008004000340140F3
:102F70000040014010B5036A046A24F010040462A2
:102F8000846923F0A00324F4704444EA023243EA43
:102F900001118261016210BD30B5046A056A25F035
:102FA00010050562856925F4407545EA022222F480
:102FB00070454FF6FF7202EA033224F0A0032A4361
:102FC000A02404EA011119438261016230BDFEE7C9
:102FD0000907090E002804DB00F1E02080F8001446
:102FE000704700F00F0000F1E02080F8141D7047DA
:102FF00010B500F04DF89FED111B51EC100B53EC88
:10300000112B00F085FD9FED0F1B53EC112B00F0F1
:1030100081FC9FED0E1B53EC112B00F03BFA00F0EE
:1030200039FC81B20B4881818278012A02D1427831
:103030000AB1018210BDC18110BD00000000000076
:103040000000F03F0000000000804640000000004B
:1030500000004E401000002070B50B4C0025608B26
:10306000618A884201D9012503E0A18A884209D2F8
:103070000225E079A84205D0E08A401CE08203489E
:10308000FEF70CFEE57170BD10000020B8000020B6
:1030900010B50C48FDF728FE0A48FDF7EBFC80B29E
:1030A00000F025FC9FED081B53EC112B00F032FCC7
:1030B0009FED071B53EC112B00F02CFC41EC100B87
:1030C00010BD00004C0000206666666666660A4019
:1030D000000000000000303F70B52F4D0121284650
:1030E000FDF7B2FF2D4C022120722846FDF7ACFF00
:1030F000607204212846FDF7A7FFA07201214FF05E
:103100009040FDF7A1FFE072207A70B9E0780128C5
:103110000BD120780321401CC0B2B0FBF1F201FBBF
:10312000120020700020FFF785F9607A48B92079F5
:10313000012806D12078022803D1607820B1002030
:103140006070A07A10B110E00120F9E760790128E1
:103150000BD12078022808D1A07848B10020A070B7
:1031600018B1E0896082208AA082E07A10B10AE07A
:103170000120F4E7A079012805D1207818B90020B2
:10318000E082FFF757F9207AE070607A2071A07A28
:103190006071E07AA07170BD00040048100000204A
:1031A00010B52D4C86B02078C8B92CA16846FDF723
:1031B00087F869461820FFF7ABF9628B2BA16846A8
:1031C000FDF77EF869464820FFF7A2F9E28A2CA1B4
:1031D0006846FDF775F869466020FFF799F9207891
:1031E000012819D12AA16846FDF76AF86946182016
:1031F000FFF78EF9A28B2AA16846FDF761F86946B0
:103200004820FFF785F9E28B29A16846FDF758F8B9
:1032100069466020FFF77CF92078022819D128A19F
:103220006846FDF74DF869461820FFF771F9628A84
:1032300027A16846FDF744F869464820FFF768F97A
:10324000A28A27A16846FDF73BF869466020FFF790
:103250005FF906B010BD00001000002020202020E3
:1032600020202048454152542020000020202020CA
:10327000202020526174653A25642020000000005F
:1032800020202020202020436F6E3A25640000007B
:10329000202020202020205245434F52442020004F
:1032A000202020202020204D61783A256420200015
:1032B000202020202020204D696E3A256420200007
:1032C000202020202020202050415241202000009A
:1032D000202020202020486967683A2564202000AB
:1032E000202020202020204C6F773A2564202000C9
:1032F00010B51E4C2078A8B10021012000F038F84C
:103300002078012810D00021022000F031F8207828
:1033100002280BD00021032000F02AF8A078012811
:1033200006D00AE00121E8E70121EDE70121F2E7FB
:10333000607810B92078022807D00021042000F01E
:1033400017F8A078012802D007E00121F6E760789D
:10335000012802D12078022805D00021BDE81040C4
:10336000052000F005B80121F8E70000100000205A
:1033700070B50E4E0D460446012204213046FDF77D
:1033800068FE4FF48070641EA040094B81B20DB1FD
:10339000002200E001221846FDF75BFE3046BDE842
:1033A000704000220421FDF754BE0000000C0048CC
:1033B00000080048FDF760FEFFF7CCFCFFF764FA59
:1033C000FFF724FAFFF7CAFAFFF7FCFA00211148C9
:1033D000FEF760FE1048FEF761FCFFF7E5F80020FD
:1033E000FFF728F80020FFF73FF94FF6FF70FFF7CF
:1033F0004FF900BFFFF77CFFFFF7D2FEFFF76CFE2F
:10340000FFF72AFE00F036F8FFF7F2FD00F006F8AD
:10341000F0E7000004010020B800002010B5104CB7
:10342000208BB0F57A7F01D81E2017E0A0F2E93199
:1034300040F2E732914210D200F059FA9FED091B99
:1034400053EC112B00F066FA9FED081B53EC112B87
:1034500000F05EFB00F01EFA00E0C820608310BDA3
:1034600010000020C3F5285C8FC2C53F000000009B
:10347000008061400648418B828B914200D9818354
:10348000C28B914202D2002900D0C1837047000054
:103490001000002010B591EA030F48BF83F00043ED
:1034A00000F13E83841A71EB030C05D2121943EB31
:1034B0000C03001B61EB0C01DFF824E14FEA11540F
:1034C000A4EB135C1EEA430F18BF9EEA445F73D05F
:1034D00023EA0E03DCF1200E21EA045143F48013A9
:1034E00032D322FA0CFE10EB0E0023FA0CFE41EB55
:1034F0000E01CCF1200E03FA0EFE10EB0E0051F17E
:103500000001B1F5801FCCF1200E32D201EB045145
:1035100012FA0EF2BDE8104058BF7047401C38BF89
:103520005FEA420218BF7047002814BF20F0010074
:1035300041F100014FEA410313F5001F38BF704706
:10354000A1F1C04100F0DEBA012A43EB0302ACF165
:10355000200CDCF11F0E32BF4FF0000E23FA0CF3EB
:1035600010EB030041EB0451B4EB115FD0D0A1EBA1
:10357000045101F5801149085FEA300001EB045164
:103580000ED350F1000038BF12FA0EFE08D1BDE88C
:103590001040C9E7401C38BF5FEA4202CAD1C3E706
:1035A000BDE810404FEA410313F5001F38BF7047D4
:1035B000A1F1C04100F0A6BA9EEA445F08D011EA2A
:1035C0005E0FBDE8104004BF01F0004100207047CD
:1035D000BDE8104070B500F047FA00BF64FBBE3E86
:1035E0000000E0FF2DE9C04130B4DFF8A0C23CEAA2
:1035F000111418BF3CEA131400F0EC8081EA0305B3
:103600001CEA111444EAD57418BF1CEA131500F023
:10361000C780A4EB05044FF0004545EAC12145EA07
:10362000C32341EA505143EA525304F17F74994253
:1036300004F500344FEAC0204FEAC22208BF90428E
:1036400000F09C804FEA13650FF24016765D4FEA5A
:10365000134506FB05F7C7F1807706FB07F74FEA2E
:10366000D737A7FB03687642C8F58038A7FB06CE9C
:1036700038BFA8F1010807FB08E64FF0000EA6FBD3
:10368000028CE6FB03CEDCF1000CCEF1004E38BF1D
:10369000AEF1010EA6FB0C584FF000074FF00005ED
:1036A000E6FB0E87A1FB08C6A0FB07CE16EB0E06B5
:1036B00045F10005E1FB076515F1E04E7EBFA4F57D
:1036C00080345FEA46066D4116F1800745F100053A
:1036D0004FEA17274FEA066647EA0567A6F1DE4676
:1036E000B6F1805F4FEA15251FD9384624F0010C4A
:1036F00005EBC471BCF1FE6F01EB0C1102D8F0BCFC
:10370000BDE8008124425CBF01F5801E9EEAC47FB3
:1037100002D4F0BCBDE80081244238D4F0BCA1F151
:10372000C041BDE8004100F0EDB94FEAD22242EAC3
:1037300043524FEAD323A7FB02864FEAD02040EA48
:10374000415007FB03661EEA0E0F4FEAD12105FB2D
:10375000026658BFA6EB0056B6EB00564FEA520E73
:103760004EEAC37E18EB0E0E56EB530EBDD518EB8A
:1037700002085E417F1C55F10005B6E74FF4801545
:103780004FF000074FF000064FF00008ADE7F0BC27
:103790004FF0000001F1C04101F00041BDE800819F
:1037A00011EA0C1F0CEA131500D00CE013EA0C1FF1
:1037B00000F025804FF00000F0BC81EA030101F029
:1037C0000041BDE80081F0BCBDE8004181EA030191
:1037D00000F098B9F0BCBDE8004170B500F044F9C4
:1037E000097EFC3E00F007B881EA03014FF00000BB
:1037F00001F00041704781EA030100F083B9F0BC99
:10380000BDE800414FF0000021497047FFFDFBF982
:10381000F7F5F4F2F0EEEDEBE9E8E6E4E3E1E0DE03
:10382000DDDBDAD8D7D5D4D3D1D0CFCDCCCBCAC875
:10383000C7C6C5C4C2C1C0BFBEBDBCBBBAB9B8B79C
:10384000B6B5B4B3B2B1B0AFAEADACABAAA9A8A88F
:10385000A7A6A5A4A3A3A2A1A09F9F9E9D9C9C9B5D
:103860009A99999897979695959493939291919008
:103870008F8F8E8E8D8C8C8B8B8A89898888878799
:103880008685858484838382828181800000FF070E
:103890000000F87F4FEA1153A3F58063D3F11E03B4
:1038A000A8BFD3F1200C08DB4FF0004242EAC1224E
:1038B00052EA505232FA03F0704709420BD4102BEF
:1038C000C4BF0020704703F5787CBCF1FF3F05D0F2
:1038D0004FF0FF3070474FF00000704770B500F0B8
:1038E000C3F800BF4992248000207047F0E7B0FA87
:1038F00080F310FA03F10AD0C3F11D0303F58063CE
:103900004FEA41504FEA035202EBD12170474FF08A
:1039100000007047DFF848C170B51CEA111E1EBFD9
:103920001CEA13159EEA0C0F95EA0C0F00F06F804D
:1039300081EA030423EA4C134EEAD47E21EA4C11B7
:1039400041F4801143F48013AE44A1FB024CA0FB70
:103950000365AEF17F7E361955EB0C05A1FB034CD8
:103960004CF10003A0FB021C16EB0C06654153F161
:103970000003094218BF46F0010613F4007F0BD183
:103980004FEA03314FEA0530340341EA155140EA6A
:1039900016506FF003020AE04FEAC3214FEAC52038
:1039A000F40241EA555140EA56506FF0020202EB30
:1039B0002E4201EB025585EACE710AD05FEA440C33
:1039C00018BF24F0004450F1000041F1000120EA4A
:1039D000D47040F2FE7C624500D270BDA84214BF94
:1039E0004FF080444FF04044002E08BF0024BEF149
:1039F000806FA8BFA1F1C041BDE8704080F2828015
:103A00004FF0000001F1C04101F0004170479EEA13
:103A10000C0F0CEA131518BF95EA0C0F06D04FF0E7
:103A2000000081EA030E0EF0004170BD00F01CF8AA
:103A30008900013E00F007B800F009B84FEA430CD6
:103A40005FEA5C5C08D081EA030100F05BB84FEAF2
:103A5000410C5FEA5C5CF6D14FF000000149704711
:103A60000000FF070000F87F0EF1020E2EF0030E9B
:103A70005EF8046B364205D4012A43EB030515F5C5
:103A8000001F12D8012841EB010C1CF5001F0CD8B7
:103A90000ED14FEAD17C15F5001F0CEB4C0C0CF14C
:103AA000020C08BF4CEBD37C04E04FF0080C01E0A3
:103AB0004FEAD37C0CEB4C0526FA05F606F0070618
:103AC000B6F1040C06D20EEB860CBDE870404CF04B
:103AD000010C6047DFE80CF0090B02024FF00041D7
:103AE0004FF00000A1F5002170BD194610460128D5
:103AF00051EB010418BFD4F5001484BF002001F07D
:103B0000004170BD0808A0F500114FEA310170476F
:103B100010B591EA030F48BF83F000433FF5C2ACF4
:103B2000841A71EB030C07D212198CF0004C43EB92
:103B30000C03001B61EB0C01DFF8A4E14FEA115408
:103B4000A4EB135C1EEA430F18BF9EEA445F00F02B
:103B5000B08023EA6E03524221EA0451C3EB6E03A4
:103B600038BF5B1EDCF1200E25D322FA0CFE10EBD1
:103B70000E0043FA0CFE41EB0E01CCF1200E03FACD
:103B80000EFE10EB0E0051F10001CCF1200E29D4F5
:103B900012FA0EF201EB0451BDE8104058BF704715
:103BA000401C1CBFB2F1004F704700280CBF491CDD
:103BB00020F00100704712EB020E43EB030218BF26
:103BC0004FF0010E4EEA4202ACF1200CDCF11E0E69
:103BD00054D943FA0CFE10EB0E0051F1FF31CCF139
:103BE0001E0ED5D50EF1010E12FA0EFE404141EB2C
:103BF000010101EB445C5FEA5C5C10D910EBDE7004
:103C000001EB045138BFBEF1004FBDE8104018BFB2
:103C1000704700280CBF491C20F00100704730D2CB
:103C20004FEAD42C11F5001124F400641BD0B1FA32
:103C300081F20B3AA41AA41ED2F12003914030FA6B
:103C400003F31943904001EBCC71002C01EB0451BC
:103C5000BDE81040A8BF704701F1C0414FF000001F
:103C600001F000417047B0FA80F310FA03F100D17F
:103C700010BDE41A173C4805C90AE4E701EB0451FA
:103C800010BD491001EB0451BDE810404FEA30006F
:103C900002E04FF0000170474A0008BF0042F8D030
:103CA000B2F5001F28BF704701F000414FF000003F
:103CB00070479EEA445F07D011EA5E0FBDE81040EE
:103CC00004BF002100207047BDE8104070B5FFF729
:103CD000CBFE00BF40DFF63E83F000411046704748
:103CE0000000E0FF4FF04070E1EE100A7047000066
:103CF00000000000000000000000000000000000C4
:103D000000000000000000000000000000000000B3
:103D100000000000000000000000000000000000A3
:103D2000800180018001800180018001800180018B
:103D3000800180018001800180010000000080017D
:103D400080010000000000000000000000000000F2
:103D50000000CC00CC00CC00CC00CC00CC0000009B
:103D60000000000000000000000000000000000053
:103D70000000000000000000000000000000000043
:103D800000000000000000000000600C600C600CEF
:103D900030063006FE1FFE1F300638071803FE1FD0
:103DA000FE1F180318038C018C018C010000000019
:103DB0008000E003F80F9C0E8C1C8C188C0098007F
:103DC000F801E007800E801C8C188C189C18B80C29
:103DD000F00FE00380008000000000000000000001
:103DE000000000000E181B0C110C11061106110327
:103DF00011039B018E01C038C06C604460443044A4
:103E000030441844186C0C3800000000000000001A
:103E1000E001F0033807180618063003F001F0003F
:103E2000F8009C310E33061E061C061C063FFC7370
:103E3000F021000000000000000000000000000071
:103E400000000C000C000C000C000C000C0000002A
:103E50000000000000000000000000000000000062
:103E60000000000000000000000000000000000052
:103E7000000200038001C000C0006000600030004C
:103E80003000300030003000300030003000600082
:103E90006000C000C00080010003000200000000BC
:103EA00020006000C00080018001000300030006C4
:103EB00000060006000600060006000600060003D5
:103EC000000380018001C0006000200000000000AD
:103ED00000000000000000000000C000C000D80684
:103EE000F807E00130033807000000000000000080
:103EF00000000000000000000000000000000000C2
:103F0000000000000000000000008001800180012E
:103F100080018001FC3FFC3F800180018001800125
:103F20008001000000000000000000000000000010
:103F30000000000000000000000000000000000081
:103F40000000000000000000000000000000000071
:103F500080018001000100018000000000000000DD
:103F60000000000000000000000000000000000051
:103F7000000000000000E007E00700000000000073
:103F80000000000000000000000000000000000031
:103F90000000000000000000000000000000000021
:103FA0000000000000000000000000000000000011
:103FB000C000C00000000000000000000000000081
:103FC000000C000C000600060006000300030003BE
:103FD0008003800180018001C000C000C00060003B
:103FE0006000000000000000000000000000000071
:103FF000E003F007380E180C0C180C180C180C18ED
:104000000C180C180C180C180C18180C380EF0079B
:10401000E0030000000000000000000000000000BD
:1040200000018001C001F001980188018001800138
:104030008001800180018001800180018001800178
:1040400080010000000000000000000000000000EF
:10405000E003F80F180C0C180C1800180018000CCE
:10406000000600038001C000600030001800FC1F43
:10407000FC1F000000000000000000000000000025
:10408000E001F807180E0C0C0C0C000C0006C00325
:10409000C007000C001800180C180C18180CF807B2
:1040A000E00300000000000000000000000000002D
:1040B000000C000E000F000F800DC00C600C600C97
:1040C000300C180C0C0CFC3FFC3F000C000C000CDE
:1040D000000C0000000000000000000000000000D4
:1040E000F80FF80F180018000C00EC03FC071C0E6A
:1040F000001C0018001800180C181C0C180EF807EB
:10410000E0030000000000000000000000000000CC
:10411000C007F00F381C181818000C00CC03EC0F67
:104120003C0E1C1C0C180C180C18181C380EF00730
:10413000E00300000000000000000000000000009C
:10414000FC1FFC1F000C000600060003800380011A
:10415000C001C000E000600060007000300030006E
:10416000300000000000000000000000000000001F
:10417000E003F007380E180C180C180C3806F0077E
:10418000F007180C0C180C180C180C18380CF80F39
:10419000E00300000000000000000000000000003C
:1041A000E003F007380E1C0C0C180C180C181C1C23
:1041B000381EF81BE0190018000C000C1C0EF80744
:1041C000F0010000000000000000000000000000FE
:1041D00000000000000000000000800180010000DD
:1041E000000000000000000000000000000080014E
:1041F000800100000000000000000000000000003E
:1042000000000000000000000000800180010000AC
:10421000000000000000000000000000000080011D
:10422000800100010001800000000000000000008B
:10423000000000000000000000000000000000106E
:10424000001C800FE003F8001800F800E003800F66
:10425000001C001000000000000000000000000032
:104260000000000000000000000000000000F81F37
:10427000000000000000F81F000000000000000027
:10428000000000000000000000000000000000002E
:104290000000000000000000000000000000080016
:1042A0003800F001C007001F0018001FC007F00110
:1042B00038000800000000000000000000000000BE
:1042C000E003F80F180C0C180C180018000C00066E
:1042D00000038001C000C000C00000000000C0005A
:1042E000C00000000000000000000000000000000E
:1042F0000000E00718180420C229224A114409448A
:104300000944094409221113E20C02400420181840
:10431000E0070000000000000000000000000000B6
:1043200080038003C006C006C006600C600C301815
:1043300030183018F83FF83F1C700C600C6006C055
:1043400006C00000000000000000000000000000A7
:10435000FC03FC0F0C0C0C180C180C180C0CFC07B4
:10436000FC0F0C180C300C300C300C300C18FC1FEF
:10437000FC0700000000000000000000000000003A
:10438000C007F01F38381C300C70066006000600AD
:10439000060006000600060006600C701C30F01FC8
:1043A000E007000000000000000000000000000026
:1043B000FE03FE0F060E06180618063006300630FD
:1043C000063006300630063006180618060EFE0FB8
:1043D000FE030000000000000000000000000000DC
:1043E000FC3FFC3F0C000C000C000C000C00FC1F00
:1043F000FC1F0C000C000C000C000C000C00FC3F1F
:10440000FC3F000000000000000000000000000071
:10441000F83FF83F18001800180018001800F81F9F
:10442000F81F1800180018001800180018001800CD
:104430001800000000000000000000000000000064
:10444000E00FF83F3C780E6006E007C00300030071
:1044500003FE03FE03C007C006C00EC03CF0F83FD9
:10446000E00F00000000000000000000000000005D
:104470000C300C300C300C300C300C300C30FC3F5D
:10448000FC3F0C300C300C300C300C300C300C304D
:104490000C300000000000000000000000000000E0
:1044A0008001800180018001800180018001800104
:1044B00080018001800180018001800180018001F4
:1044C000800100000000000000000000000000006B
:1044D00000060006000600060006000600060006AC
:1044E0000006000600060006180618063807F00346
:1044F000E0010000000000000000000000000000DB
:1045000006300618060C060606038601C60066007D
:104510007600DE008E0106030606060C061806303D
:104520000660000000000000000000000000000025
:1045300018001800180018001800180018001800BB
:104540001800180018001800180018001800F81FAC
:10455000F81F000000000000000000000000000044
:104560000EE01EF01EF01EF036D836D836D836D8FB
:1045700066CC66CC66CCC6C6C6C6C6C6C6C686C32C
:1045800086C30000000000000000000000000000E2
:104590000C301C303C303C306C306C30CC30CC308B
:1045A0008C310C330C330C360C360C3C0C3C0C3878
:1045B0000C300000000000000000000000000000BF
:1045C000E007F81F1C380E70066003C003C003C06C
:1045D00003C003C003C003C006600E701C38F81F80
:1045E000E0070000000000000000000000000000E4
:1045F000FC0FFC1F0C380C300C300C300C300C183D
:10460000FC1FFC070C000C000C000C000C000C0044
:104610000C0000000000000000000000000000008E
:10462000E007F81F1C380E70066003E003C003C0EB
:1046300003C003C003C007E006630E3F1C3CF83F05
:10464000E0F700C0000000000000000000000000D3
:10465000FE0FFE1F06380630063006300638FE1FF5
:10466000FE0706030606060C061806180630063076
:1046700006600000000000000000000000000000D4
:10468000E003F80F1C0C0C180C180C001C00F803AD
:10469000E00F001E0038063006300E301C1CF80FEC
:1046A000E007000000000000000000000000000023
:1046B000FE7FFE7F800180018001800180018001FA
:1046C00080018001800180018001800180018001E2
:1046D0008001000000000000000000000000000059
:1046E0000C300C300C300C300C300C300C300C30EA
:1046F0000C300C300C300C300C300C301818F81F0B
:10470000E0070000000000000000000000000000C2
:1047100003600630063006300C180C180C18180C04
:10472000180C380E30063006700760036003C001B5
:10473000C0010000000000000000000000000000B8
:104740000360C361C361C361663366336633663336
:10475000663366336C1B6C1B6C1B2C1A3C1E380EAC
:10476000380E000000000000000000000000000003
:104770000FE00C7018303018700C600EC00780030A
:104780008003C003E006700C301C18180C300E605B
:1047900007E0000000000000000000000000000032
:1047A00003C006600C301C383818300C6006E00777
:1047B000C0038001800180018001800180018001AF
:1047C0008001000000000000000000000000000068
:1047D000FC7FFC7F006000300018000C0006000326
:1047E0008001C0006000300018000C000600FE7F51
:1047F000FE7F00000000000000000000000000003C
:10480000E003E003600060006000600060006000A2
:104810006000600060006000600060006000600098
:104820006000600060006000E003E0030000000042
:1048300030003000600060006000C000C000C000B8
:10484000C001800180018001000300030003000615
:104850000006000000000000000000000000000052
:10486000E003E00300030003000300030003000370
:104870000003000300030003000300030003000320
:104880000003000300030003E003E0030000000056
:104890000000C001C0016003600360033006300601
:1048A000180C180C000000000000000000000000C0
:1048B00000000000000000000000000000000000F8
:1048C00000000000000000000000000000000000E8
:1048D00000000000000000000000000000000000D8
:1048E000FFFFFFFF000000000000000000000000CC
:1048F0000C000C000C000C000C000C000000000070
:1049000000000000000000000000000000000000A7
:104910000000000000000000000000000000000097
:1049200000000000000000000000F003F8071C0C6D
:104930000C0C000FF00FF80C0C0C0C0C1C0FF80FEB
:10494000F01800000000000000000000000000005F
:1049500018001800180018001800D803F80F380CB9
:10496000181818181818181818181818380CF80FDC
:10497000D80300000000000000000000000000005C
:1049800000000000000000000000C003F007300E2F
:10499000180C1800180018001800180C300EF0073A
:1049A000C003000000000000000000000000000044
:1049B00000180018001800180018C01BF01F301C49
:1049C000181818181818181818181818301CF01F6C
:1049D000C01B0000000000000000000000000000FC
:1049E00000000000000000000000C003F00F300CC9
:1049F0001818F81FF81F180018003818301CF00F8E
:104A0000C0070000000000000000000000000000DF
:104A1000800FC00FC000C000C000F007F007C0004A
:104A2000C000C000C000C000C000C000C000C00086
:104A3000C0000000000000000000000000000000B6
:104A400000000000000000000000E00DF80F180E4C
:104A50000C0C0C0C0C0C0C0C0C0C0C0C180EF80F99
:104A6000E00D000C0C0C1C06F807F0010000000023
:104A700018001800180018001800D807F80F381C84
:104A800018181818181818181818181818181818A6
:104A900018180000000000000000000000000000E6
:104AA000C000C000000000000000C000C000C00046
:104AB000C000C000C000C000C000C000C000C000F6
:104AC000C000000000000000000000000000000026
:104AD000C000C000000000000000C000C000C00016
:104AE000C000C000C000C000C000C000C000C000C6
:104AF000C000C000C000C000F80078000000000046
:104B00000C000C000C000C000C000C0C0C060C0330
:104B10008C01CC006C00FC009C018C030C030C0687
:104B20000C0C00000000000000000000000000006D
:104B3000C000C000C000C000C000C000C000C00075
:104B4000C000C000C000C000C000C000C000C00065
:104B5000C000000000000000000000000000000095
:104B6000000000000000000000007C3CFF7EC7E366
:104B700083C183C183C183C183C183C183C183C115
:104B800083C10000000000000000000000000000E1
:104B9000000000000000000000009807F80F381C1B
:104BA0001818181818181818181818181818181885
:104BB00018180000000000000000000000000000C5
:104BC00000000000000000000000C003F00F300CE7
:104BD000181818181818181818181818300CF00F7A
:104BE000C003000000000000000000000000000002
:104BF00000000000000000000000D803F80F380C8F
:104C0000181818181818181818181818380CF80F39
:104C1000D803180018001800180018000000000041
:104C200000000000000000000000C01BF01F301C4E
:104C3000181818181818181818181818301CF01FF9
:104C4000C01B001800180018001800180000000011
:104C500000000000000000000000B007F00370003A
:104C600030003000300030003000300030003000C4
:104C70003000000000000000000000000000000004
:104C800000000000000000000000E003F003380E08
:104C9000180C3800F003C007000C180C380EF00791
:104CA000E003000000000000000000000000000021
:104CB00000008000C000C000C000F007F007C00086
:104CC000C000C000C000C000C000C000C000C007DD
:104CD000800700000000000000000000000000004D
:104CE0000000000000000000000018181818181834
:104CF000181818181818181818181818381CF01F31
:104D0000E0190000000000000000000000000000AA
:104D1000000000000000000000000C18180C180C27
:104D2000180C300630063006600360036003C001D3
:104D3000C0010000000000000000000000000000B2
:104D400000000000000000000000C141C141C3613B
:104D50006363636363633636363636361C1C1C1C4D
:104D60001C1C00000000000000000000000000000B
:104D7000000000000000000000001C38381C300C4F
:104D8000600660036003600360036006300C381C3B
:104D90001C380000000000000000000000000000BF
:104DA000000000000000000000001830301830182B
:104DB0007018600C600CE00CC006C0068003800315
:104DC000800380018001C001F0007000000000003D
:104DD00000000000000000000000FC1FFC1F000C91
:104DE000000600038001C000600030001800FC1FB6
:104DF000FC1F000000000000000000000000000098
:104E000000038001C000C000C000C000C000C0009E
:104E100060006000300060004000C000C000C000C2
:104E2000C000C000C00080010003000000000000BE
:104E3000800180018001800180018001800180016A
:104E4000800180018001800180018001800180015A
:104E5000800180018001800180018001000000004C
:104E60006000C000C00180018001800180018001DC
:104E7000000300030006000300018001800180019F
:104E8000800180018001C00060000000000000007F
:104E90000000000000000000000000000000F01012
:104EA000F81F080F000000000000000000000000D4
:104EB00000000000000000000000000000000000F2
:104EC00000000000000001020304060708090000BA
:104ED000F04E0008000000204C0000001402000802
:104EE0003C4F00084C00002064070000300200081E
:104EF00010000000010000000000000000000000A1
:104F00000000000101010100000000003C006400FD
:104F10003C0064003C00000000001E000000FFFF99
:104F20000000000000000000000000000000000081
:0C4F30000000FFFF000000000024F4005F
:04000005080001D915
:00000001FF
